{
  "address": "0x2bc91c73AC7d2c1D22F1be0c035BD59148ed328F",
  "abi": [
    {
      "inputs": [],
      "stateMutability": "nonpayable",
      "type": "constructor"
    },
    {
      "anonymous": false,
      "inputs": [
        {
          "indexed": true,
          "internalType": "address",
          "name": "owner",
          "type": "address"
        },
        {
          "indexed": true,
          "internalType": "address",
          "name": "spender",
          "type": "address"
        },
        {
          "indexed": false,
          "internalType": "uint256",
          "name": "value",
          "type": "uint256"
        }
      ],
      "name": "Approval",
      "type": "event"
    },
    {
      "anonymous": false,
      "inputs": [
        {
          "indexed": true,
          "internalType": "address",
          "name": "burner",
          "type": "address"
        },
        {
          "indexed": false,
          "internalType": "uint256",
          "name": "value",
          "type": "uint256"
        }
      ],
      "name": "Burn",
      "type": "event"
    },
    {
      "anonymous": false,
      "inputs": [
        {
          "indexed": true,
          "internalType": "address",
          "name": "from",
          "type": "address"
        },
        {
          "indexed": true,
          "internalType": "address",
          "name": "to",
          "type": "address"
        },
        {
          "indexed": false,
          "internalType": "uint256",
          "name": "value",
          "type": "uint256"
        }
      ],
      "name": "Transfer",
      "type": "event"
    },
    {
      "inputs": [
        {
          "internalType": "address",
          "name": "owner",
          "type": "address"
        },
        {
          "internalType": "address",
          "name": "spender",
          "type": "address"
        }
      ],
      "name": "allowance",
      "outputs": [
        {
          "internalType": "uint256",
          "name": "",
          "type": "uint256"
        }
      ],
      "stateMutability": "view",
      "type": "function"
    },
    {
      "inputs": [
        {
          "internalType": "address",
          "name": "spender",
          "type": "address"
        },
        {
          "internalType": "uint256",
          "name": "amount",
          "type": "uint256"
        }
      ],
      "name": "approve",
      "outputs": [
        {
          "internalType": "bool",
          "name": "",
          "type": "bool"
        }
      ],
      "stateMutability": "nonpayable",
      "type": "function"
    },
    {
      "inputs": [
        {
          "internalType": "address",
          "name": "account",
          "type": "address"
        }
      ],
      "name": "balanceOf",
      "outputs": [
        {
          "internalType": "uint256",
          "name": "",
          "type": "uint256"
        }
      ],
      "stateMutability": "view",
      "type": "function"
    },
    {
      "inputs": [
        {
          "internalType": "uint256",
          "name": "amount",
          "type": "uint256"
        }
      ],
      "name": "burn",
      "outputs": [],
      "stateMutability": "nonpayable",
      "type": "function"
    },
    {
      "inputs": [],
      "name": "decimals",
      "outputs": [
        {
          "internalType": "uint8",
          "name": "",
          "type": "uint8"
        }
      ],
      "stateMutability": "view",
      "type": "function"
    },
    {
      "inputs": [],
      "name": "name",
      "outputs": [
        {
          "internalType": "string",
          "name": "",
          "type": "string"
        }
      ],
      "stateMutability": "view",
      "type": "function"
    },
    {
      "inputs": [],
      "name": "symbol",
      "outputs": [
        {
          "internalType": "string",
          "name": "",
          "type": "string"
        }
      ],
      "stateMutability": "view",
      "type": "function"
    },
    {
      "inputs": [],
      "name": "totalSupply",
      "outputs": [
        {
          "internalType": "uint256",
          "name": "",
          "type": "uint256"
        }
      ],
      "stateMutability": "view",
      "type": "function"
    },
    {
      "inputs": [
        {
          "internalType": "address",
          "name": "recipient",
          "type": "address"
        },
        {
          "internalType": "uint256",
          "name": "amount",
          "type": "uint256"
        }
      ],
      "name": "transfer",
      "outputs": [
        {
          "internalType": "bool",
          "name": "",
          "type": "bool"
        }
      ],
      "stateMutability": "nonpayable",
      "type": "function"
    },
    {
      "inputs": [
        {
          "internalType": "address",
          "name": "sender",
          "type": "address"
        },
        {
          "internalType": "address",
          "name": "recipient",
          "type": "address"
        },
        {
          "internalType": "uint256",
          "name": "amount",
          "type": "uint256"
        }
      ],
      "name": "transferFrom",
      "outputs": [
        {
          "internalType": "bool",
          "name": "",
          "type": "bool"
        }
      ],
      "stateMutability": "nonpayable",
      "type": "function"
    }
  ],
  "transactionHash": "0x40e7277b254de7d14995dc96d7802b5bd10892e7d7ac4cb701f873d213d57151",
  "args": [],
  "numDeployments": 1,
  "solcInputHash": "5869acd66d1fcfb8be90f59616081ff7",
  "bytecode": "0x60c060405260066080819052652a32ba3432b960d11b60a09081526200002991600091906200010f565b50604080518082019091526004808252631554d11560e21b602090920191825262000057916001916200010f565b506002805460ff191660121790819055620000779060ff16600a6200020b565b6200008790633b9aca0062000300565b6003553480156200009757600080fd5b50600480546001600160a01b03191633178082556003546001600160a01b039182166000908152600560205260408082208390559354935193909216927fddf252ad1be2c89b69c2b068fc378daa952ba7f163c4a11628f55a4df523b3ef916200010191620001b5565b60405180910390a362000375565b8280546200011d9062000322565b90600052602060002090601f0160209004810192826200014157600085556200018c565b82601f106200015c57805160ff19168380011785556200018c565b828001600101855582156200018c579182015b828111156200018c5782518255916020019190600101906200016f565b506200019a9291506200019e565b5090565b5b808211156200019a57600081556001016200019f565b90815260200190565b80825b6001808611620001d2575062000202565b818704821115620001e757620001e76200035f565b80861615620001f557918102915b9490941c938002620001c1565b94509492505050565b60006200021c600019848462000223565b9392505050565b60008262000234575060016200021c565b8162000243575060006200021c565b81600181146200025c576002811462000267576200029b565b60019150506200021c565b60ff8411156200027b576200027b6200035f565b6001841b9150848211156200029457620002946200035f565b506200021c565b5060208310610133831016604e8410600b8410161715620002d3575081810a83811115620002cd57620002cd6200035f565b6200021c565b620002e28484846001620001be565b808604821115620002f757620002f76200035f565b02949350505050565b60008160001904831182151516156200031d576200031d6200035f565b500290565b6002810460018216806200033757607f821691505b602082108114156200035957634e487b7160e01b600052602260045260246000fd5b50919050565b634e487b7160e01b600052601160045260246000fd5b61091d80620003856000396000f3fe608060405234801561001057600080fd5b506004361061009e5760003560e01c806342966c681161006657806342966c681461011e57806370a082311461013357806395d89b4114610146578063a9059cbb1461014e578063dd62ed3e146101615761009e565b806306fdde03146100a3578063095ea7b3146100c157806318160ddd146100e157806323b872dd146100f6578063313ce56714610109575b600080fd5b6100ab610174565b6040516100b89190610750565b60405180910390f35b6100d46100cf366004610704565b610202565b6040516100b89190610745565b6100e961026c565b6040516100b89190610850565b6100d46101043660046106c9565b610272565b61011161042d565b6040516100b89190610859565b61013161012c36600461072d565b610436565b005b6100e9610141366004610676565b610523565b6100ab610542565b6100d461015c366004610704565b61054f565b6100e961016f366004610697565b610634565b6000805461018190610896565b80601f01602080910402602001604051908101604052809291908181526020018280546101ad90610896565b80156101fa5780601f106101cf576101008083540402835291602001916101fa565b820191906000526020600020905b8154815290600101906020018083116101dd57829003601f168201915b505050505081565b3360008181526006602090815260408083206001600160a01b038716808552925280832085905551919290917f8c5be1e5ebec7d5bd14f71427d1e84f3dd0314c0f7b2291e5b200ac8c7c3b9259061025b908690610850565b60405180910390a350600192915050565b60035490565b60006001600160a01b0384166102a35760405162461bcd60e51b815260040161029a906107fd565b60405180910390fd5b6001600160a01b0383166102c95760405162461bcd60e51b815260040161029a90610825565b6001600160a01b0384166000908152600560205260409020548211156103015760405162461bcd60e51b815260040161029a906107cf565b6001600160a01b03841660009081526006602090815260408083203384529091529020548211156103445760405162461bcd60e51b815260040161029a906107a3565b6001600160a01b0384166000908152600560205260408120805484929061036c90849061087f565b90915550506001600160a01b03831660009081526005602052604081208054849290610399908490610867565b90915550506001600160a01b0384166000908152600660209081526040808320338452909152812080548492906103d190849061087f565b92505081905550826001600160a01b0316846001600160a01b03167fddf252ad1be2c89b69c2b068fc378daa952ba7f163c4a11628f55a4df523b3ef8460405161041b9190610850565b60405180910390a35060019392505050565b60025460ff1681565b336000908152600560205260409020548111156104655760405162461bcd60e51b815260040161029a906107cf565b336000908152600560205260408120805483929061048490849061087f565b92505081905550806003600082825461049d919061087f565b909155505060405160009033907fddf252ad1be2c89b69c2b068fc378daa952ba7f163c4a11628f55a4df523b3ef906104d7908590610850565b60405180910390a3336001600160a01b03167fcc16f5dbb4873280815c1ee09dbd06736cffcc184412cf7a71a0fdb75d397ca5826040516105189190610850565b60405180910390a250565b6001600160a01b0381166000908152600560205260409020545b919050565b6001805461018190610896565b60006001600160a01b0383166105775760405162461bcd60e51b815260040161029a90610825565b336000908152600560205260409020548211156105a65760405162461bcd60e51b815260040161029a906107cf565b33600090815260056020526040812080548492906105c590849061087f565b90915550506001600160a01b038316600090815260056020526040812080548492906105f2908490610867565b90915550506040516001600160a01b0384169033907fddf252ad1be2c89b69c2b068fc378daa952ba7f163c4a11628f55a4df523b3ef9061025b908690610850565b6001600160a01b03918216600090815260066020908152604080832093909416825291909152205490565b80356001600160a01b038116811461053d57600080fd5b600060208284031215610687578081fd5b6106908261065f565b9392505050565b600080604083850312156106a9578081fd5b6106b28361065f565b91506106c06020840161065f565b90509250929050565b6000806000606084860312156106dd578081fd5b6106e68461065f565b92506106f46020850161065f565b9150604084013590509250925092565b60008060408385031215610716578182fd5b61071f8361065f565b946020939093013593505050565b60006020828403121561073e578081fd5b5035919050565b901515815260200190565b6000602080835283518082850152825b8181101561077c57858101830151858201604001528201610760565b8181111561078d5783604083870101525b50601f01601f1916929092016040019392505050565b602080825260129082015271105b1b1bddd85b98d948195e18d95959195960721b604082015260600190565b602080825260149082015273496e73756666696369656e742062616c616e636560601b604082015260600190565b6020808252600e908201526d24b73b30b634b21039b2b73232b960911b604082015260600190565b602080825260119082015270125b9d985b1a59081c9958da5c1a595b9d607a1b604082015260600190565b90815260200190565b60ff91909116815260200190565b6000821982111561087a5761087a6108d1565b500190565b600082821015610891576108916108d1565b500390565b6002810460018216806108aa57607f821691505b602082108114156108cb57634e487b7160e01b600052602260045260246000fd5b50919050565b634e487b7160e01b600052601160045260246000fdfea26469706673582212206d7ef80f5fd6d2a11531c4e7477cc2b67c2d6bce0d79f2699691ab7606458abe64736f6c63430008000033",
  "devdoc": {
    "details": "This contract implements the IERC20 interface and adds additional functionalities like token burning. It is initialized with a fixed supply of tokens credited to the owner's address.",
    "kind": "dev",
    "methods": {
      "burn(uint256)": {
        "details": "Removes tokens from the circulating supply by reducing the caller's balance and the total supply count. Emits a Burn event alongside a Transfer event to the zero address.",
        "params": {
          "amount": "The amount of tokens to be burned."
        }
      },
      "constructor": {
        "details": "Sets the token name, symbol, decimals, and mints the total supply to the deployer."
      }
    },
    "title": "Tether",
    "version": 1
  },
  "userdoc": {
    "kind": "user",
    "methods": {
      "burn(uint256)": {
        "notice": "Burns a specific amount of tokens from the caller's account, reducing the total supply."
      },
      "constructor": {
        "notice": "Constructs the Tether contract and assigns initial total supply to the owner."
      }
    },
    "notice": "Simulates the Tether USD (USDT) token with ERC20 functionalities.",
    "version": 1
  },
  "storageLayout": {
    "storage": [
      {
        "astId": 1197,
        "contract": "contracts/Tether.sol:Tether",
        "label": "name",
        "offset": 0,
        "slot": "0",
        "type": "t_string_storage"
      },
      {
        "astId": 1200,
        "contract": "contracts/Tether.sol:Tether",
        "label": "symbol",
        "offset": 0,
        "slot": "1",
        "type": "t_string_storage"
      },
      {
        "astId": 1203,
        "contract": "contracts/Tether.sol:Tether",
        "label": "decimals",
        "offset": 0,
        "slot": "2",
        "type": "t_uint8"
      },
      {
        "astId": 1213,
        "contract": "contracts/Tether.sol:Tether",
        "label": "_totalSupply",
        "offset": 0,
        "slot": "3",
        "type": "t_uint256"
      },
      {
        "astId": 1215,
        "contract": "contracts/Tether.sol:Tether",
        "label": "_owner",
        "offset": 0,
        "slot": "4",
        "type": "t_address"
      },
      {
        "astId": 1219,
        "contract": "contracts/Tether.sol:Tether",
        "label": "_balances",
        "offset": 0,
        "slot": "5",
        "type": "t_mapping(t_address,t_uint256)"
      },
      {
        "astId": 1225,
        "contract": "contracts/Tether.sol:Tether",
        "label": "_allowances",
        "offset": 0,
        "slot": "6",
        "type": "t_mapping(t_address,t_mapping(t_address,t_uint256))"
      }
    ],
    "types": {
      "t_address": {
        "encoding": "inplace",
        "label": "address",
        "numberOfBytes": "20"
      },
      "t_mapping(t_address,t_mapping(t_address,t_uint256))": {
        "encoding": "mapping",
        "key": "t_address",
        "label": "mapping(address => mapping(address => uint256))",
        "numberOfBytes": "32",
        "value": "t_mapping(t_address,t_uint256)"
      },
      "t_mapping(t_address,t_uint256)": {
        "encoding": "mapping",
        "key": "t_address",
        "label": "mapping(address => uint256)",
        "numberOfBytes": "32",
        "value": "t_uint256"
      },
      "t_string_storage": {
        "encoding": "bytes",
        "label": "string",
        "numberOfBytes": "32"
      },
      "t_uint256": {
        "encoding": "inplace",
        "label": "uint256",
        "numberOfBytes": "32"
      },
      "t_uint8": {
        "encoding": "inplace",
        "label": "uint8",
        "numberOfBytes": "1"
      }
    }
  }
}