{
  "address": "0xa6984A06a7B975b13dcC9c8F94e125eFD62c5052",
  "abi": [
    {
      "inputs": [
        {
          "internalType": "address",
          "name": "userManagerAddress",
          "type": "address"
        }
      ],
      "stateMutability": "nonpayable",
      "type": "constructor"
    },
    {
      "inputs": [
        {
          "internalType": "address",
          "name": "retailerAddress",
          "type": "address"
        }
      ],
      "name": "getRetailerTransactions",
      "outputs": [
        {
          "components": [
            {
              "internalType": "address",
              "name": "buyer",
              "type": "address"
            },
            {
              "internalType": "address",
              "name": "retailer",
              "type": "address"
            },
            {
              "internalType": "uint32",
              "name": "productIndex",
              "type": "uint32"
            },
            {
              "internalType": "uint16",
              "name": "quantity",
              "type": "uint16"
            },
            {
              "internalType": "uint256",
              "name": "totalPrice",
              "type": "uint256"
            },
            {
              "internalType": "uint32",
              "name": "totalScore",
              "type": "uint32"
            },
            {
              "internalType": "uint256",
              "name": "timestamp",
              "type": "uint256"
            }
          ],
          "internalType": "struct Transaction[]",
          "name": "",
          "type": "tuple[]"
        }
      ],
      "stateMutability": "view",
      "type": "function"
    },
    {
      "inputs": [
        {
          "internalType": "uint32",
          "name": "index",
          "type": "uint32"
        }
      ],
      "name": "getTransaction",
      "outputs": [
        {
          "components": [
            {
              "internalType": "address",
              "name": "buyer",
              "type": "address"
            },
            {
              "internalType": "address",
              "name": "retailer",
              "type": "address"
            },
            {
              "internalType": "uint32",
              "name": "productIndex",
              "type": "uint32"
            },
            {
              "internalType": "uint16",
              "name": "quantity",
              "type": "uint16"
            },
            {
              "internalType": "uint256",
              "name": "totalPrice",
              "type": "uint256"
            },
            {
              "internalType": "uint32",
              "name": "totalScore",
              "type": "uint32"
            },
            {
              "internalType": "uint256",
              "name": "timestamp",
              "type": "uint256"
            }
          ],
          "internalType": "struct Transaction",
          "name": "",
          "type": "tuple"
        }
      ],
      "stateMutability": "view",
      "type": "function"
    },
    {
      "inputs": [
        {
          "internalType": "address",
          "name": "userAddress",
          "type": "address"
        }
      ],
      "name": "getUserTransactions",
      "outputs": [
        {
          "components": [
            {
              "internalType": "address",
              "name": "buyer",
              "type": "address"
            },
            {
              "internalType": "address",
              "name": "retailer",
              "type": "address"
            },
            {
              "internalType": "uint32",
              "name": "productIndex",
              "type": "uint32"
            },
            {
              "internalType": "uint16",
              "name": "quantity",
              "type": "uint16"
            },
            {
              "internalType": "uint256",
              "name": "totalPrice",
              "type": "uint256"
            },
            {
              "internalType": "uint32",
              "name": "totalScore",
              "type": "uint32"
            },
            {
              "internalType": "uint256",
              "name": "timestamp",
              "type": "uint256"
            }
          ],
          "internalType": "struct Transaction[]",
          "name": "",
          "type": "tuple[]"
        }
      ],
      "stateMutability": "view",
      "type": "function"
    },
    {
      "inputs": [],
      "name": "inventoryManagement",
      "outputs": [
        {
          "internalType": "contract InventoryManagement",
          "name": "",
          "type": "address"
        }
      ],
      "stateMutability": "view",
      "type": "function"
    },
    {
      "inputs": [],
      "name": "owner",
      "outputs": [
        {
          "internalType": "address",
          "name": "",
          "type": "address"
        }
      ],
      "stateMutability": "view",
      "type": "function"
    },
    {
      "inputs": [
        {
          "internalType": "address",
          "name": "buyerAddress",
          "type": "address"
        },
        {
          "internalType": "address",
          "name": "retailerAddress",
          "type": "address"
        },
        {
          "internalType": "uint32",
          "name": "productIndex",
          "type": "uint32"
        },
        {
          "internalType": "uint16",
          "name": "quantity",
          "type": "uint16"
        },
        {
          "internalType": "uint256",
          "name": "totalCost",
          "type": "uint256"
        },
        {
          "internalType": "uint32",
          "name": "totalScore",
          "type": "uint32"
        }
      ],
      "name": "recordTransaction",
      "outputs": [],
      "stateMutability": "nonpayable",
      "type": "function"
    },
    {
      "inputs": [
        {
          "internalType": "address",
          "name": "",
          "type": "address"
        },
        {
          "internalType": "uint256",
          "name": "",
          "type": "uint256"
        }
      ],
      "name": "retailerTransactions",
      "outputs": [
        {
          "internalType": "uint256",
          "name": "",
          "type": "uint256"
        }
      ],
      "stateMutability": "view",
      "type": "function"
    },
    {
      "inputs": [
        {
          "internalType": "address",
          "name": "inventoryManagementAddress",
          "type": "address"
        }
      ],
      "name": "setInventoryManagement",
      "outputs": [],
      "stateMutability": "nonpayable",
      "type": "function"
    },
    {
      "inputs": [
        {
          "internalType": "uint256",
          "name": "",
          "type": "uint256"
        }
      ],
      "name": "transactions",
      "outputs": [
        {
          "internalType": "address",
          "name": "buyer",
          "type": "address"
        },
        {
          "internalType": "address",
          "name": "retailer",
          "type": "address"
        },
        {
          "internalType": "uint32",
          "name": "productIndex",
          "type": "uint32"
        },
        {
          "internalType": "uint16",
          "name": "quantity",
          "type": "uint16"
        },
        {
          "internalType": "uint256",
          "name": "totalPrice",
          "type": "uint256"
        },
        {
          "internalType": "uint32",
          "name": "totalScore",
          "type": "uint32"
        },
        {
          "internalType": "uint256",
          "name": "timestamp",
          "type": "uint256"
        }
      ],
      "stateMutability": "view",
      "type": "function"
    },
    {
      "inputs": [],
      "name": "userManager",
      "outputs": [
        {
          "internalType": "contract UserManager",
          "name": "",
          "type": "address"
        }
      ],
      "stateMutability": "view",
      "type": "function"
    },
    {
      "inputs": [
        {
          "internalType": "address",
          "name": "",
          "type": "address"
        },
        {
          "internalType": "uint256",
          "name": "",
          "type": "uint256"
        }
      ],
      "name": "userTransactions",
      "outputs": [
        {
          "internalType": "uint256",
          "name": "",
          "type": "uint256"
        }
      ],
      "stateMutability": "view",
      "type": "function"
    }
  ],
  "transactionHash": "0xd9bddbcfb98f30454c7ac7ad5241c6cc4ad5cdd8c59f560dcc88d067304781b4",
  "args": [
    "0xC07b17696877180055bc2fD688265b65A3982092"
  ],
  "numDeployments": 1,
  "solcInputHash": "5869acd66d1fcfb8be90f59616081ff7",
  "bytecode": "0x608060405234801561001057600080fd5b50604051610db6380380610db683398101604081905261002f91610062565b60058054336001600160a01b031991821617909155600480549091166001600160a01b0392909216919091179055610090565b600060208284031215610073578081fd5b81516001600160a01b0381168114610089578182fd5b9392505050565b610d178061009f6000396000f3fe608060405234801561001057600080fd5b50600436106100a95760003560e01c80638da5cb5b116100715780638da5cb5b146101415780639ace38c214610149578063b842ec441461016f578063cee3087314610182578063deda649314610195578063ef9253991461019d576100a9565b806319c0b086146100ae5780633085e1ea146100d75780634a0a0c89146100f75780635c73cc20146101175780635c8a76871461012c575b600080fd5b6100c16100bc3660046109f5565b6101b0565b6040516100ce9190610ba1565b60405180910390f35b6100ea6100e5366004610acb565b61039d565b6040516100ce9190610c7c565b61010a610105366004610a8a565b610455565b6040516100ce9190610c90565b61012a6101253660046109f5565b610486565b005b6101346104db565b6040516100ce9190610b45565b6101346104ea565b61015c610157366004610ab3565b6104f9565b6040516100ce9796959493929190610b59565b61010a61017d366004610a8a565b610564565b61012a610190366004610a16565b610580565b61013461079c565b6100c16101ab3660046109f5565b6107ab565b6001600160a01b038116600090815260026020908152604080832080548251818502810185019093528083526060949383018282801561020f57602002820191906000526020600020905b8154815260200190600101908083116101fb575b505050505090506000815167ffffffffffffffff81111561024057634e487b7160e01b600052604160045260246000fd5b60405190808252806020026020018201604052801561027957816020015b61026661098e565b81526020019060019003908161025e5790505b50905060005b82518110156103935760008382815181106102aa57634e487b7160e01b600052603260045260246000fd5b6020026020010151815481106102d057634e487b7160e01b600052603260045260246000fd5b60009182526020918290206040805160e08101825260059390930290910180546001600160a01b039081168452600182015490811694840194909452600160a01b840463ffffffff90811692840192909252600160c01b90930461ffff1660608301526002830154608083015260038301541660a082015260049091015460c0820152825183908390811061037557634e487b7160e01b600052603260045260246000fd5b6020026020010181905250808061038b90610cb0565b91505061027f565b509150505b919050565b6103a561098e565b60008263ffffffff16815481106103cc57634e487b7160e01b600052603260045260246000fd5b60009182526020918290206040805160e08101825260059390930290910180546001600160a01b039081168452600182015490811694840194909452600160a01b840463ffffffff90811692840192909252600160c01b90930461ffff1660608301526002830154608083015260038301541660a082015260049091015460c082015292915050565b6002602052816000526040600020818154811061047157600080fd5b90600052602060002001600091509150505481565b6005546001600160a01b031633146104b95760405162461bcd60e51b81526004016104b090610bef565b60405180910390fd5b600380546001600160a01b0319166001600160a01b0392909216919091179055565b6004546001600160a01b031681565b6005546001600160a01b031681565b6000818154811061050957600080fd5b6000918252602090912060059091020180546001820154600283015460038401546004909401546001600160a01b03938416955092821693600160a01b830463ffffffff90811694600160c01b90940461ffff169391169087565b6001602052816000526040600020818154811061047157600080fd5b6003546001600160a01b031633146105aa5760405162461bcd60e51b81526004016104b090610c30565b6040805160e0810182526001600160a01b0388811682528781166020830190815263ffffffff88811694840194855261ffff888116606086019081526080860189815288841660a088019081524260c0890190815260008054600180820183558280529a517f290decd9548b62a8d60345a988386fc84ba6bc95484008f6362f93160ef3e563600590920291820180546001600160a01b0319908116928d1692909217905598517f290decd9548b62a8d60345a988386fc84ba6bc95484008f6362f93160ef3e564820180549d5197519d909a169a169990991763ffffffff60a01b1916600160a01b958816959095029490941761ffff60c01b1916600160c01b9a909516999099029390931790945592517f290decd9548b62a8d60345a988386fc84ba6bc95484008f6362f93160ef3e565850155517f290decd9548b62a8d60345a988386fc84ba6bc95484008f6362f93160ef3e5668401805463ffffffff19169190921617905592517f290decd9548b62a8d60345a988386fc84ba6bc95484008f6362f93160ef3e5679091015581546107479190610c99565b6001600160a01b039788166000908152600160208181526040808420805480850182559085528285200185905599909a16825260028a5297812080549889018155815297909720909501959095555050505050565b6003546001600160a01b031681565b6001600160a01b038116600090815260016020908152604080832080548251818502810185019093528083526060949383018282801561080a57602002820191906000526020600020905b8154815260200190600101908083116107f6575b505050505090506000815167ffffffffffffffff81111561083b57634e487b7160e01b600052604160045260246000fd5b60405190808252806020026020018201604052801561087457816020015b61086161098e565b8152602001906001900390816108595790505b50905060005b82518110156103935760008382815181106108a557634e487b7160e01b600052603260045260246000fd5b6020026020010151815481106108cb57634e487b7160e01b600052603260045260246000fd5b60009182526020918290206040805160e08101825260059390930290910180546001600160a01b039081168452600182015490811694840194909452600160a01b840463ffffffff90811692840192909252600160c01b90930461ffff1660608301526002830154608083015260038301541660a082015260049091015460c0820152825183908390811061097057634e487b7160e01b600052603260045260246000fd5b6020026020010181905250808061098690610cb0565b91505061087a565b6040805160e081018252600080825260208201819052918101829052606081018290526080810182905260a0810182905260c081019190915290565b80356001600160a01b038116811461039857600080fd5b803563ffffffff8116811461039857600080fd5b600060208284031215610a06578081fd5b610a0f826109ca565b9392505050565b60008060008060008060c08789031215610a2e578182fd5b610a37876109ca565b9550610a45602088016109ca565b9450610a53604088016109e1565b9350606087013561ffff81168114610a69578283fd5b925060808701359150610a7e60a088016109e1565b90509295509295509295565b60008060408385031215610a9c578182fd5b610aa5836109ca565b946020939093013593505050565b600060208284031215610ac4578081fd5b5035919050565b600060208284031215610adc578081fd5b610a0f826109e1565b60018060a01b0380825116835280602083015116602084015250604081015163ffffffff808216604085015261ffff6060840151166060850152608083015160808501528060a08401511660a0850152505060c081015160c08301525050565b6001600160a01b0391909116815260200190565b6001600160a01b03978816815295909616602086015263ffffffff938416604086015261ffff92909216606085015260808401521660a082015260c081019190915260e00190565b6020808252825182820181905260009190848201906040850190845b81811015610be357610bd0838551610ae5565b9284019260e09290920191600101610bbd565b50909695505050505050565b60208082526021908201527f4f6e6c79206f776e65722063616e2063616c6c20746869732066756e6374696f6040820152603760f91b606082015260800190565b6020808252602c908201527f4f6e6c7920496e76656e746f72794d616e616765722063616e2063616c6c207460408201526b3434b990333ab731ba34b7b760a11b606082015260800190565b60e08101610c8a8284610ae5565b92915050565b90815260200190565b600082821015610cab57610cab610ccb565b500390565b6000600019821415610cc457610cc4610ccb565b5060010190565b634e487b7160e01b600052601160045260246000fdfea26469706673582212205b75e74db50467f4d8e8ab5747c24511a09a6023e5bf3df8066b9c78540da5e564736f6c63430008000033",
  "devdoc": {
    "details": "This contract allows for recording of retail transactions, linking products, buyers, and retailers with financial and loyalty data.",
    "kind": "dev",
    "methods": {
      "constructor": {
        "details": "Sets the owner to the message sender and initializes the UserManager contract.",
        "params": {
          "userManagerAddress": "Address of the UserManager contract."
        }
      },
      "getRetailerTransactions(address)": {
        "params": {
          "retailerAddress": "Address of the retailer."
        },
        "returns": {
          "_0": "An array of transactions involving the retailer."
        }
      },
      "getTransaction(uint32)": {
        "params": {
          "index": "Index of the transaction in the array."
        },
        "returns": {
          "_0": "Transaction data structure containing all transaction details."
        }
      },
      "getUserTransactions(address)": {
        "params": {
          "userAddress": "Address of the user."
        },
        "returns": {
          "_0": "An array of transactions made by the user."
        }
      },
      "recordTransaction(address,address,uint32,uint16,uint256,uint32)": {
        "details": "Stores transaction details and updates mappings for user and retailer transaction lists. Can only be called by InventoryManagement.",
        "params": {
          "buyerAddress": "Address of the buyer.",
          "productIndex": "Index of the product being purchased.",
          "quantity": "Quantity of the product being purchased.",
          "retailerAddress": "Address of the retailer.",
          "totalCost": "Total cost of the transaction.",
          "totalScore": "Total loyalty score associated with the transaction."
        }
      },
      "setInventoryManagement(address)": {
        "details": "Can only be called by the contract owner.",
        "params": {
          "inventoryManagementAddress": "Address of the InventoryManagement contract to be linked."
        }
      }
    },
    "title": "Transaction Manager",
    "version": 1
  },
  "userdoc": {
    "kind": "user",
    "methods": {
      "constructor": {
        "notice": "Initializes the contract with the address of the UserManager contract."
      },
      "getRetailerTransactions(address)": {
        "notice": "Retrieves all transactions associated with a specific retailer."
      },
      "getTransaction(uint32)": {
        "notice": "Retrieves a transaction by its index."
      },
      "getUserTransactions(address)": {
        "notice": "Retrieves all transactions associated with a specific user."
      },
      "recordTransaction(address,address,uint32,uint16,uint256,uint32)": {
        "notice": "Records a transaction in the system."
      },
      "setInventoryManagement(address)": {
        "notice": "Sets the InventoryManagement contract address."
      }
    },
    "notice": "Manages recording and retrieving transactions in a retail environment",
    "version": 1
  },
  "storageLayout": {
    "storage": [
      {
        "astId": 1535,
        "contract": "contracts/TransactionManager.sol:TransactionManager",
        "label": "transactions",
        "offset": 0,
        "slot": "0",
        "type": "t_array(t_struct(Transaction)1530_storage)dyn_storage"
      },
      {
        "astId": 1540,
        "contract": "contracts/TransactionManager.sol:TransactionManager",
        "label": "userTransactions",
        "offset": 0,
        "slot": "1",
        "type": "t_mapping(t_address,t_array(t_uint256)dyn_storage)"
      },
      {
        "astId": 1545,
        "contract": "contracts/TransactionManager.sol:TransactionManager",
        "label": "retailerTransactions",
        "offset": 0,
        "slot": "2",
        "type": "t_mapping(t_address,t_array(t_uint256)dyn_storage)"
      },
      {
        "astId": 1548,
        "contract": "contracts/TransactionManager.sol:TransactionManager",
        "label": "inventoryManagement",
        "offset": 0,
        "slot": "3",
        "type": "t_contract(InventoryManagement)567"
      },
      {
        "astId": 1551,
        "contract": "contracts/TransactionManager.sol:TransactionManager",
        "label": "userManager",
        "offset": 0,
        "slot": "4",
        "type": "t_contract(UserManager)2222"
      },
      {
        "astId": 1553,
        "contract": "contracts/TransactionManager.sol:TransactionManager",
        "label": "owner",
        "offset": 0,
        "slot": "5",
        "type": "t_address"
      }
    ],
    "types": {
      "t_address": {
        "encoding": "inplace",
        "label": "address",
        "numberOfBytes": "20"
      },
      "t_array(t_struct(Transaction)1530_storage)dyn_storage": {
        "base": "t_struct(Transaction)1530_storage",
        "encoding": "dynamic_array",
        "label": "struct Transaction[]",
        "numberOfBytes": "32"
      },
      "t_array(t_uint256)dyn_storage": {
        "base": "t_uint256",
        "encoding": "dynamic_array",
        "label": "uint256[]",
        "numberOfBytes": "32"
      },
      "t_contract(InventoryManagement)567": {
        "encoding": "inplace",
        "label": "contract InventoryManagement",
        "numberOfBytes": "20"
      },
      "t_contract(UserManager)2222": {
        "encoding": "inplace",
        "label": "contract UserManager",
        "numberOfBytes": "20"
      },
      "t_mapping(t_address,t_array(t_uint256)dyn_storage)": {
        "encoding": "mapping",
        "key": "t_address",
        "label": "mapping(address => uint256[])",
        "numberOfBytes": "32",
        "value": "t_array(t_uint256)dyn_storage"
      },
      "t_struct(Transaction)1530_storage": {
        "encoding": "inplace",
        "label": "struct Transaction",
        "members": [
          {
            "astId": 1517,
            "contract": "contracts/TransactionManager.sol:TransactionManager",
            "label": "buyer",
            "offset": 0,
            "slot": "0",
            "type": "t_address"
          },
          {
            "astId": 1519,
            "contract": "contracts/TransactionManager.sol:TransactionManager",
            "label": "retailer",
            "offset": 0,
            "slot": "1",
            "type": "t_address"
          },
          {
            "astId": 1521,
            "contract": "contracts/TransactionManager.sol:TransactionManager",
            "label": "productIndex",
            "offset": 20,
            "slot": "1",
            "type": "t_uint32"
          },
          {
            "astId": 1523,
            "contract": "contracts/TransactionManager.sol:TransactionManager",
            "label": "quantity",
            "offset": 24,
            "slot": "1",
            "type": "t_uint16"
          },
          {
            "astId": 1525,
            "contract": "contracts/TransactionManager.sol:TransactionManager",
            "label": "totalPrice",
            "offset": 0,
            "slot": "2",
            "type": "t_uint256"
          },
          {
            "astId": 1527,
            "contract": "contracts/TransactionManager.sol:TransactionManager",
            "label": "totalScore",
            "offset": 0,
            "slot": "3",
            "type": "t_uint32"
          },
          {
            "astId": 1529,
            "contract": "contracts/TransactionManager.sol:TransactionManager",
            "label": "timestamp",
            "offset": 0,
            "slot": "4",
            "type": "t_uint256"
          }
        ],
        "numberOfBytes": "160"
      },
      "t_uint16": {
        "encoding": "inplace",
        "label": "uint16",
        "numberOfBytes": "2"
      },
      "t_uint256": {
        "encoding": "inplace",
        "label": "uint256",
        "numberOfBytes": "32"
      },
      "t_uint32": {
        "encoding": "inplace",
        "label": "uint32",
        "numberOfBytes": "4"
      }
    }
  }
}